{
  "contractName": "D",
  "abi": [
    {
      "constant": true,
      "inputs": [],
      "name": "name",
      "outputs": [
        {
          "name": "",
          "type": "string"
        }
      ],
      "payable": false,
      "stateMutability": "view",
      "type": "function",
      "signature": "0x06fdde03"
    },
    {
      "constant": true,
      "inputs": [],
      "name": "serial_number",
      "outputs": [
        {
          "name": "",
          "type": "int256"
        }
      ],
      "payable": false,
      "stateMutability": "view",
      "type": "function",
      "signature": "0x99796fe7"
    },
    {
      "constant": true,
      "inputs": [],
      "name": "license_number",
      "outputs": [
        {
          "name": "",
          "type": "string"
        }
      ],
      "payable": false,
      "stateMutability": "view",
      "type": "function",
      "signature": "0xabe3d3d8"
    },
    {
      "constant": true,
      "inputs": [],
      "name": "getword",
      "outputs": [
        {
          "name": "",
          "type": "string"
        },
        {
          "name": "",
          "type": "string"
        },
        {
          "name": "",
          "type": "int256"
        }
      ],
      "payable": false,
      "stateMutability": "view",
      "type": "function",
      "signature": "0x23b9943c"
    },
    {
      "constant": false,
      "inputs": [
        {
          "name": "Newword",
          "type": "string"
        },
        {
          "name": "LNUMBER",
          "type": "string"
        },
        {
          "name": "SNUMBER",
          "type": "int256"
        }
      ],
      "name": "setword",
      "outputs": [
        {
          "name": "",
          "type": "string"
        },
        {
          "name": "",
          "type": "string"
        },
        {
          "name": "",
          "type": "int256"
        }
      ],
      "payable": false,
      "stateMutability": "nonpayable",
      "type": "function",
      "signature": "0x9bb670ba"
    }
  ],
  "bytecode": "0x608060405234801561001057600080fd5b506109fe806100206000396000f3fe60806040526004361061006d576000357c0100000000000000000000000000000000000000000000000000000000900463ffffffff16806306fdde031461007257806323b9943c1461010257806399796fe7146102055780639bb670ba14610230578063abe3d3d814610485575b600080fd5b34801561007e57600080fd5b50610087610515565b6040518080602001828103825283818151815260200191508051906020019080838360005b838110156100c75780820151818401526020810190506100ac565b50505050905090810190601f1680156100f45780820380516001836020036101000a031916815260200191505b509250505060405180910390f35b34801561010e57600080fd5b506101176105b3565b604051808060200180602001848152602001838103835286818151815260200191508051906020019080838360005b83811015610161578082015181840152602081019050610146565b50505050905090810190601f16801561018e5780820380516001836020036101000a031916815260200191505b50838103825285818151815260200191508051906020019080838360005b838110156101c75780820151818401526020810190506101ac565b50505050905090810190601f1680156101f45780820380516001836020036101000a031916815260200191505b509550505050505060405180910390f35b34801561021157600080fd5b5061021a610701565b6040518082815260200191505060405180910390f35b34801561023c57600080fd5b506103976004803603606081101561025357600080fd5b810190808035906020019064010000000081111561027057600080fd5b82018360208201111561028257600080fd5b803590602001918460018302840111640100000000831117156102a457600080fd5b91908080601f016020809104026020016040519081016040528093929190818152602001838380828437600081840152601f19601f8201169050808301925050505050505091929192908035906020019064010000000081111561030757600080fd5b82018360208201111561031957600080fd5b8035906020019184600183028401116401000000008311171561033b57600080fd5b91908080601f016020809104026020016040519081016040528093929190818152602001838380828437600081840152601f19601f82011690508083019250505050505050919291929080359060200190929190505050610707565b604051808060200180602001848152602001838103835286818151815260200191508051906020019080838360005b838110156103e15780820151818401526020810190506103c6565b50505050905090810190601f16801561040e5780820380516001836020036101000a031916815260200191505b50838103825285818151815260200191508051906020019080838360005b8381101561044757808201518184015260208101905061042c565b50505050905090810190601f1680156104745780820380516001836020036101000a031916815260200191505b509550505050505060405180910390f35b34801561049157600080fd5b5061049a61088f565b6040518080602001828103825283818151815260200191508051906020019080838360005b838110156104da5780820151818401526020810190506104bf565b50505050905090810190601f1680156105075780820380516001836020036101000a031916815260200191505b509250505060405180910390f35b60008054600181600116156101000203166002900480601f0160208091040260200160405190810160405280929190818152602001828054600181600116156101000203166002900480156105ab5780601f10610580576101008083540402835291602001916105ab565b820191906000526020600020905b81548152906001019060200180831161058e57829003601f168201915b505050505081565b6060806000806001600254828054600181600116156101000203166002900480601f0160208091040260200160405190810160405280929190818152602001828054600181600116156101000203166002900480156106535780601f1061062857610100808354040283529160200191610653565b820191906000526020600020905b81548152906001019060200180831161063657829003601f168201915b50505050509250818054600181600116156101000203166002900480601f0160208091040260200160405190810160405280929190818152602001828054600181600116156101000203166002900480156106ef5780601f106106c4576101008083540402835291602001916106ef565b820191906000526020600020905b8154815290600101906020018083116106d257829003601f168201915b50505050509150925092509250909192565b60025481565b6060806000856000908051906020019061072292919061092d565b50846001908051906020019061073992919061092d565b508360028190555060006001600254828054600181600116156101000203166002900480601f0160208091040260200160405190810160405280929190818152602001828054600181600116156101000203166002900480156107dd5780601f106107b2576101008083540402835291602001916107dd565b820191906000526020600020905b8154815290600101906020018083116107c057829003601f168201915b50505050509250818054600181600116156101000203166002900480601f0160208091040260200160405190810160405280929190818152602001828054600181600116156101000203166002900480156108795780601f1061084e57610100808354040283529160200191610879565b820191906000526020600020905b81548152906001019060200180831161085c57829003601f168201915b5050505050915092509250925093509350939050565b60018054600181600116156101000203166002900480601f0160208091040260200160405190810160405280929190818152602001828054600181600116156101000203166002900480156109255780601f106108fa57610100808354040283529160200191610925565b820191906000526020600020905b81548152906001019060200180831161090857829003601f168201915b505050505081565b828054600181600116156101000203166002900490600052602060002090601f016020900481019282601f1061096e57805160ff191683800117855561099c565b8280016001018555821561099c579182015b8281111561099b578251825591602001919060010190610980565b5b5090506109a991906109ad565b5090565b6109cf91905b808211156109cb5760008160009055506001016109b3565b5090565b9056fea165627a7a72305820ce27af01a141411fa64b8ffbf04e0ec4a6f311dcf6a6510b177dc4df98278e910029",
  "source": "pragma solidity ^0.5.0;\r\n\r\ncontract D {\r\n    \r\n    string public name;\r\n    string public license_number;\r\n    int public serial_number;\r\n  \r\n  function getword() view public returns(string memory, string memory, int) {\r\n      return (name, license_number, serial_number) ;\r\n  }\r\n  \r\n   function setword(string memory Newword, string memory LNUMBER, int SNUMBER) public returns(string memory, string memory, int) {\r\n       name = Newword;\r\n       license_number= LNUMBER;\r\n       serial_number= SNUMBER;\r\n       return (name, license_number, serial_number);\r\n   }\r\n    \r\n}",
  "sourcePath": "C:/Crypto/contracts/sample_contract.sol",
  "compiler": {
    "name": "solc",
    "version": "0.5.0+commit.1d4f565a.Emscripten.clang"
  },
  "schemaVersion": "3.0.6",
  "updatedAt": "2019-05-02T15:56:16.193Z",
  "devdoc": {
    "methods": {}
  },
  "userdoc": {
    "methods": {}
  }
}