{
  "contractName": "F",
  "abi": [
    {
      "constant": true,
      "inputs": [],
      "name": "serial_number",
      "outputs": [
        {
          "name": "",
          "type": "int256"
        }
      ],
      "payable": false,
      "stateMutability": "view",
      "type": "function",
      "signature": "0x99796fe7"
    },
    {
      "constant": true,
      "inputs": [],
      "name": "getword",
      "outputs": [
        {
          "name": "",
          "type": "int256"
        }
      ],
      "payable": false,
      "stateMutability": "view",
      "type": "function",
      "signature": "0x23b9943c"
    },
    {
      "constant": false,
      "inputs": [
        {
          "name": "SNUMBER",
          "type": "int256"
        }
      ],
      "name": "setword",
      "outputs": [
        {
          "name": "",
          "type": "int256"
        }
      ],
      "payable": false,
      "stateMutability": "nonpayable",
      "type": "function",
      "signature": "0x5f85f3a0"
    }
  ],
  "bytecode": "0x608060405234801561001057600080fd5b5061014f806100206000396000f3fe608060405260043610610057576000357c0100000000000000000000000000000000000000000000000000000000900463ffffffff16806323b9943c1461005c5780635f85f3a01461008757806399796fe7146100d6575b600080fd5b34801561006857600080fd5b50610071610101565b6040518082815260200191505060405180910390f35b34801561009357600080fd5b506100c0600480360360208110156100aa57600080fd5b810190808035906020019092919050505061010a565b6040518082815260200191505060405180910390f35b3480156100e257600080fd5b506100eb61011d565b6040518082815260200191505060405180910390f35b60008054905090565b6000816000819055506000549050919050565b6000548156fea165627a7a723058209c958e8988e7ee0f6e6ddb3d839b2fc1744433063ba9097e9e93dd92c16c56f30029",
  "source": "pragma solidity ^0.5.0;\r\n\r\ncontract F {\r\n    \r\n    \r\n    int public serial_number;\r\n  \r\n  function getword() view public returns(int) {\r\n      return serial_number ;\r\n  }\r\n  \r\n   function setword(int SNUMBER) public returns(int) {\r\n       serial_number= SNUMBER;\r\n       return serial_number;\r\n   }    \r\n}",
  "sourcePath": "C:/Crypto/contracts/test_contract.sol",
  "compiler": {
    "name": "solc",
    "version": "0.5.0+commit.1d4f565a.Emscripten.clang"
  },
  "schemaVersion": "3.0.6",
  "updatedAt": "2019-05-02T15:56:16.501Z",
  "devdoc": {
    "methods": {}
  },
  "userdoc": {
    "methods": {}
  }
}