{
  "contractName": "reg_renewal",
  "abi": [
    {
      "constant": true,
      "inputs": [
        {
          "name": "",
          "type": "uint256"
        }
      ],
      "name": "title",
      "outputs": [
        {
          "name": "",
          "type": "int256"
        }
      ],
      "payable": false,
      "stateMutability": "view",
      "type": "function",
      "signature": "0x35a1223a"
    },
    {
      "constant": true,
      "inputs": [
        {
          "name": "",
          "type": "uint256"
        }
      ],
      "name": "names",
      "outputs": [
        {
          "name": "",
          "type": "string"
        }
      ],
      "payable": false,
      "stateMutability": "view",
      "type": "function",
      "signature": "0x4622ab03"
    },
    {
      "constant": true,
      "inputs": [
        {
          "name": "",
          "type": "uint256"
        }
      ],
      "name": "date",
      "outputs": [
        {
          "name": "",
          "type": "string"
        }
      ],
      "payable": false,
      "stateMutability": "view",
      "type": "function",
      "signature": "0x60c757ba"
    },
    {
      "constant": true,
      "inputs": [
        {
          "name": "",
          "type": "uint256"
        }
      ],
      "name": "vech_own",
      "outputs": [
        {
          "name": "",
          "type": "int256"
        }
      ],
      "payable": false,
      "stateMutability": "view",
      "type": "function",
      "signature": "0x7a9c228a"
    },
    {
      "constant": true,
      "inputs": [
        {
          "name": "",
          "type": "uint256"
        }
      ],
      "name": "vin",
      "outputs": [
        {
          "name": "",
          "type": "int256"
        }
      ],
      "payable": false,
      "stateMutability": "view",
      "type": "function",
      "signature": "0x838249f9"
    },
    {
      "constant": true,
      "inputs": [
        {
          "name": "",
          "type": "uint256"
        }
      ],
      "name": "lic_num",
      "outputs": [
        {
          "name": "",
          "type": "int256"
        }
      ],
      "payable": false,
      "stateMutability": "view",
      "type": "function",
      "signature": "0xb22780b4"
    },
    {
      "constant": true,
      "inputs": [
        {
          "name": "",
          "type": "uint256"
        }
      ],
      "name": "addrs",
      "outputs": [
        {
          "name": "",
          "type": "address"
        },
        {
          "name": "",
          "type": "string"
        },
        {
          "name": "",
          "type": "int256"
        }
      ],
      "payable": false,
      "stateMutability": "view",
      "type": "function",
      "signature": "0x371eb669"
    },
    {
      "constant": true,
      "inputs": [
        {
          "name": "",
          "type": "uint256"
        },
        {
          "name": "_vin",
          "type": "int256"
        }
      ],
      "name": "vechicles",
      "outputs": [
        {
          "name": "",
          "type": "string"
        }
      ],
      "payable": false,
      "stateMutability": "view",
      "type": "function",
      "signature": "0x3c32977b"
    },
    {
      "constant": true,
      "inputs": [
        {
          "name": "",
          "type": "uint256"
        }
      ],
      "name": "addr",
      "outputs": [
        {
          "name": "",
          "type": "string"
        },
        {
          "name": "",
          "type": "string"
        },
        {
          "name": "",
          "type": "string"
        }
      ],
      "payable": false,
      "stateMutability": "view",
      "type": "function",
      "signature": "0xffa18649"
    },
    {
      "constant": true,
      "inputs": [
        {
          "name": "_vin",
          "type": "int256"
        },
        {
          "name": "_vin",
          "type": "int256"
        }
      ],
      "name": "getdetails",
      "outputs": [
        {
          "name": "",
          "type": "string"
        },
        {
          "name": "",
          "type": "string"
        },
        {
          "name": "",
          "type": "string"
        },
        {
          "name": "",
          "type": "uint256"
        }
      ],
      "payable": false,
      "stateMutability": "view",
      "type": "function",
      "signature": "0x5e2717f3"
    },
    {
      "constant": false,
      "inputs": [
        {
          "name": "currency",
          "type": "uint256"
        },
        {
          "name": "_vin",
          "type": "int256"
        }
      ],
      "name": "transfer_ether",
      "outputs": [
        {
          "name": "",
          "type": "uint256"
        }
      ],
      "payable": true,
      "stateMutability": "payable",
      "type": "function",
      "signature": "0x0356113c"
    },
    {
      "constant": false,
      "inputs": [
        {
          "name": "_date",
          "type": "string"
        },
        {
          "name": "_vin",
          "type": "int256"
        }
      ],
      "name": "set_renewal_date",
      "outputs": [
        {
          "name": "",
          "type": "string"
        }
      ],
      "payable": false,
      "stateMutability": "nonpayable",
      "type": "function",
      "signature": "0xc2672b05"
    },
    {
      "constant": false,
      "inputs": [
        {
          "name": "_address",
          "type": "string"
        },
        {
          "name": "_vin",
          "type": "int256"
        }
      ],
      "name": "set_address",
      "outputs": [
        {
          "name": "",
          "type": "string"
        }
      ],
      "payable": false,
      "stateMutability": "nonpayable",
      "type": "function",
      "signature": "0xeb5a2d64"
    }
  ],
  "bytecode": "0x608060405273e77025e470b5947df14ad76614dc8de1232f2cb16000806101000a81548173ffffffffffffffffffffffffffffffffffffffff021916908373ffffffffffffffffffffffffffffffffffffffff160217905550608060405190810160405280600c60ff168152602001602260ff168152602001603860ff168152602001604e60ff1681525060019060046200009c92919062000669565b50608060405190810160405280605760ff168152602001604160ff168152602001602b60ff168152602001601560ff168152506006906004620000e192919062000669565b506080604051908101604052806040805190810160405280601381526020017f3130343920572c2034397468207374726565740000000000000000000000000081525081526020016040805190810160405280601081526020017f313035352034387468207374726565740000000000000000000000000000000081525081526020016040805190810160405280601081526020017f313036342034387468207374726565740000000000000000000000000000000081525081526020016040805190810160405280601181526020017f3130313120203432746820737472656574000000000000000000000000000000815250815250600b906004620001ea929190620006b3565b5060a0604051908101604052806040805190810160405280600581526020017f76616d736900000000000000000000000000000000000000000000000000000081525081526020016040805190810160405280600781526020017f6b726973686e610000000000000000000000000000000000000000000000000081525081526020016040805190810160405280600781526020017f736f6e697368610000000000000000000000000000000000000000000000000081525081526020016040805190810160405280600981526020017f6b6f7468696e656e69000000000000000000000000000000000000000000000081525081526020016040805190810160405280600481526020017f736f6e750000000000000000000000000000000000000000000000000000000081525081525060109060056200032e9291906200070d565b5060a060405190810160405280600160ff168152602001600260ff168152602001600360ff168152602001600460ff168152602001600560ff1681525060159060056200037d92919062000767565b5060a0604051908101604052806040805190810160405280600a81526020017f323031392d30312d30330000000000000000000000000000000000000000000081525081526020016040805190810160405280600a81526020017f323031392d30332d31370000000000000000000000000000000000000000000081525081526020016040805190810160405280600a81526020017f323032302d31302d32310000000000000000000000000000000000000000000081525081526020016040805190810160405280600a81526020017f323032312d30352d32350000000000000000000000000000000000000000000081525081526020016040805190810160405280600a81526020017f323032322d30372d323700000000000000000000000000000000000000000000815250815250601a906005620004c19291906200070d565b5060a0604051908101604052806040805190810160405280600381526020017f493230000000000000000000000000000000000000000000000000000000000081525081526020016040805190810160405280600381526020017f493130000000000000000000000000000000000000000000000000000000000081525081526020016040805190810160405280600481526020017f4a6565700000000000000000000000000000000000000000000000000000000081525081526020016040805190810160405280600581526020017f446f64676500000000000000000000000000000000000000000000000000000081525081526020016040805190810160405280600781526020017f4d757374616e6700000000000000000000000000000000000000000000000000815250815250601f906005620006059291906200070d565b5060a060405190810160405280600260ff168152602001600360ff168152602001600560ff168152602001600160ff168152602001600360ff1681525060249060056200065492919062000767565b503480156200066257600080fd5b5062000905565b8260058101928215620006a0579160200282015b828111156200069f578251829060ff169055916020019190600101906200067d565b5b509050620006af9190620007b1565b5090565b8260058101928215620006fa579160200282015b82811115620006f9578251829080519060200190620006e8929190620007d9565b5091602001919060010190620006c7565b5b50905062000709919062000860565b5090565b826005810192821562000754579160200282015b828111156200075357825182908051906020019062000742929190620007d9565b509160200191906001019062000721565b5b50905062000763919062000860565b5090565b82600581019282156200079e579160200282015b828111156200079d578251829060ff169055916020019190600101906200077b565b5b509050620007ad9190620007b1565b5090565b620007d691905b80821115620007d2576000816000905550600101620007b8565b5090565b90565b828054600181600116156101000203166002900490600052602060002090601f016020900481019282601f106200081c57805160ff19168380011785556200084d565b828001600101855582156200084d579182015b828111156200084c5782518255916020019190600101906200082f565b5b5090506200085c919062000891565b5090565b6200088e91905b808211156200088a5760008181620008809190620008b9565b5060010162000867565b5090565b90565b620008b691905b80821115620008b257600081600090555060010162000898565b5090565b90565b50805460018160011615610100020316600290046000825580601f10620008e1575062000902565b601f01602090049060005260206000209081019062000901919062000891565b5b50565b6111e380620009156000396000f3fe6080604052600436106100c5576000357c0100000000000000000000000000000000000000000000000000000000900463ffffffff16806305d583af146100ca57806335a1223a1461010c5780634622ab031461015b57806360c757ba1461020f5780637a9c228a146102c3578063838249f914610312578063a7d5b01b14610361578063b22780b4146104ed578063c2672b051461053c578063cec85cea14610687578063e1599131146106de578063eb5a2d6414610792578063ffa18649146108dd575b600080fd5b6100f6600480360360208110156100e057600080fd5b8101908080359060200190929190505050610991565b6040518082815260200191505060405180910390f35b34801561011857600080fd5b506101456004803603602081101561012f57600080fd5b8101908080359060200190929190505050610a0e565b6040518082815260200191505060405180910390f35b34801561016757600080fd5b506101946004803603602081101561017e57600080fd5b8101908080359060200190929190505050610a28565b6040518080602001828103825283818151815260200191508051906020019080838360005b838110156101d45780820151818401526020810190506101b9565b50505050905090810190601f1680156102015780820380516001836020036101000a031916815260200191505b509250505060405180910390f35b34801561021b57600080fd5b506102486004803603602081101561023257600080fd5b8101908080359060200190929190505050610ada565b6040518080602001828103825283818151815260200191508051906020019080838360005b8381101561028857808201518184015260208101905061026d565b50505050905090810190601f1680156102b55780820380516001836020036101000a031916815260200191505b509250505060405180910390f35b3480156102cf57600080fd5b506102fc600480360360208110156102e657600080fd5b8101908080359060200190929190505050610b8c565b6040518082815260200191505060405180910390f35b34801561031e57600080fd5b5061034b6004803603602081101561033557600080fd5b8101908080359060200190929190505050610ba6565b6040518082815260200191505060405180910390f35b34801561036d57600080fd5b5061039a6004803603602081101561038457600080fd5b8101908080359060200190929190505050610bc0565b60405180806020018060200180602001848103845287818151815260200191508051906020019080838360005b838110156103e25780820151818401526020810190506103c7565b50505050905090810190601f16801561040f5780820380516001836020036101000a031916815260200191505b50848103835286818151815260200191508051906020019080838360005b8381101561044857808201518184015260208101905061042d565b50505050905090810190601f1680156104755780820380516001836020036101000a031916815260200191505b50848103825285818151815260200191508051906020019080838360005b838110156104ae578082015181840152602081019050610493565b50505050905090810190601f1680156104db5780820380516001836020036101000a031916815260200191505b50965050505050505060405180910390f35b3480156104f957600080fd5b506105266004803603602081101561051057600080fd5b8101908080359060200190929190505050610e12565b6040518082815260200191505060405180910390f35b34801561054857600080fd5b5061060c6004803603604081101561055f57600080fd5b810190808035906020019064010000000081111561057c57600080fd5b82018360208201111561058e57600080fd5b803590602001918460018302840111640100000000831117156105b057600080fd5b91908080601f016020809104026020016040519081016040528093929190818152602001838380828437600081840152601f19601f82011690508083019250505050505050919291929080359060200190929190505050610e2c565b6040518080602001828103825283818151815260200191508051906020019080838360005b8381101561064c578082015181840152602081019050610631565b50505050905090810190601f1680156106795780820380516001836020036101000a031916815260200191505b509250505060405180910390f35b34801561069357600080fd5b5061069c610eee565b604051808273ffffffffffffffffffffffffffffffffffffffff1673ffffffffffffffffffffffffffffffffffffffff16815260200191505060405180910390f35b3480156106ea57600080fd5b506107176004803603602081101561070157600080fd5b8101908080359060200190929190505050610f13565b6040518080602001828103825283818151815260200191508051906020019080838360005b8381101561075757808201518184015260208101905061073c565b50505050905090810190601f1680156107845780820380516001836020036101000a031916815260200191505b509250505060405180910390f35b34801561079e57600080fd5b50610862600480360360408110156107b557600080fd5b81019080803590602001906401000000008111156107d257600080fd5b8201836020820111156107e457600080fd5b8035906020019184600183028401116401000000008311171561080657600080fd5b91908080601f016020809104026020016040519081016040528093929190818152602001838380828437600081840152601f19601f82011690508083019250505050505050919291929080359060200190929190505050610fc5565b6040518080602001828103825283818151815260200191508051906020019080838360005b838110156108a2578082015181840152602081019050610887565b50505050905090810190601f1680156108cf5780820380516001836020036101000a031916815260200191505b509250505060405180910390f35b3480156108e957600080fd5b506109166004803603602081101561090057600080fd5b8101908080359060200190929190505050611060565b6040518080602001828103825283818151815260200191508051906020019080838360005b8381101561095657808201518184015260208101905061093b565b50505050905090810190601f1680156109835780820380516001836020036101000a031916815260200191505b509250505060405180910390f35b6000816029819055506000809054906101000a900473ffffffffffffffffffffffffffffffffffffffff1673ffffffffffffffffffffffffffffffffffffffff166108fc6029549081150290604051600060405180830381858888f19350505050158015610a03573d6000803e3d6000fd5b506029549050919050565b600681600581101515610a1d57fe5b016000915090505481565b601081600581101515610a3757fe5b016000915090508054600181600116156101000203166002900480601f016020809104026020016040519081016040528092919081815260200182805460018160011615610100020316600290048015610ad25780601f10610aa757610100808354040283529160200191610ad2565b820191906000526020600020905b815481529060010190602001808311610ab557829003601f168201915b505050505081565b601a81600581101515610ae957fe5b016000915090508054600181600116156101000203166002900480601f016020809104026020016040519081016040528092919081815260200182805460018160011615610100020316600290048015610b845780601f10610b5957610100808354040283529160200191610b84565b820191906000526020600020905b815481529060010190602001808311610b6757829003601f168201915b505050505081565b602481600581101515610b9b57fe5b016000915090505481565b600181600581101515610bb557fe5b016000915090505481565b606080606060008090505b6005811015610e0957600181600581101515610be357fe5b0154851415610dfc57600b81600581101515610bfb57fe5b01601082600581101515610c0b57fe5b01601a83600581101515610c1b57fe5b01828054600181600116156101000203166002900480601f016020809104026020016040519081016040528092919081815260200182805460018160011615610100020316600290048015610cb15780601f10610c8657610100808354040283529160200191610cb1565b820191906000526020600020905b815481529060010190602001808311610c9457829003601f168201915b50505050509250818054600181600116156101000203166002900480601f016020809104026020016040519081016040528092919081815260200182805460018160011615610100020316600290048015610d4d5780601f10610d2257610100808354040283529160200191610d4d565b820191906000526020600020905b815481529060010190602001808311610d3057829003601f168201915b50505050509150808054600181600116156101000203166002900480601f016020809104026020016040519081016040528092919081815260200182805460018160011615610100020316600290048015610de95780601f10610dbe57610100808354040283529160200191610de9565b820191906000526020600020905b815481529060010190602001808311610dcc57829003601f168201915b5050505050905093509350935050610e0b565b8080600101915050610bcb565b505b9193909250565b601581600581101515610e2157fe5b016000915090505481565b606060008090505b6005811015610e8857600181600581101515610e4c57fe5b0154831415610e7b5783601a82600581101515610e6557fe5b019080519060200190610e79929190611112565b505b8080600101915050610e34565b50606060405190810160405280602181526020017f736574207468652072656e6577616c2064617465207375636365737566756c6c81526020017f7900000000000000000000000000000000000000000000000000000000000000815250905092915050565b6000809054906101000a900473ffffffffffffffffffffffffffffffffffffffff1681565b601f81600581101515610f2257fe5b016000915090508054600181600116156101000203166002900480601f016020809104026020016040519081016040528092919081815260200182805460018160011615610100020316600290048015610fbd5780601f10610f9257610100808354040283529160200191610fbd565b820191906000526020600020905b815481529060010190602001808311610fa057829003601f168201915b505050505081565b606060008090505b600581101561102157600181600581101515610fe557fe5b01548314156110145783600b82600581101515610ffe57fe5b019080519060200190611012929190611112565b505b8080600101915050610fcd565b506040805190810160405280601c81526020017f736574207468652061646472657373207375636365737566756c6c7900000000815250905092915050565b600b8160058110151561106f57fe5b016000915090508054600181600116156101000203166002900480601f01602080910402602001604051908101604052809291908181526020018280546001816001161561010002031660029004801561110a5780601f106110df5761010080835404028352916020019161110a565b820191906000526020600020905b8154815290600101906020018083116110ed57829003601f168201915b505050505081565b828054600181600116156101000203166002900490600052602060002090601f016020900481019282601f1061115357805160ff1916838001178555611181565b82800160010185558215611181579182015b82811115611180578251825591602001919060010190611165565b5b50905061118e9190611192565b5090565b6111b491905b808211156111b0576000816000905550600101611198565b5090565b9056fea165627a7a72305820a5dbb713b501b4d262a369f294e8dab450d5b2cab94822058d2cd9254205fa530029",
  "source": "pragma solidity ^0.5.0;\r\n\r\ncontract reg_renewal {\r\n\r\n    //accounts = msg.sender;\r\n    \r\n    address payable public addrs = 0xe77025E470B5947df14AD76614DC8DE1232f2CB1 ;\r\n    int[5] public vin = [12, 34,56,78];\r\n    int[5] public title = [87,65,43,21];\r\n    string[5] public addr = [\"1049 W, 49th street\", \"1055 48th street\", \"1064 48th street\", \"1011  42th street\"];\r\n    string[5] public names = [\"vamsi\", \"krishna\", \"sonisha\", \"kothineni\", \"sonu\"];\r\n    int[5] public lic_num = [1,2,3,4,5];\r\n    string[5] public date = [\"2019-01-03\",\"2019-03-17\",\"2020-10-21\",\"2021-05-25\",\"2022-07-27\"];\r\n    string[5] public vechicles = [\"I20\",\"I10\",\"Jeep\",\"Dodge\",\"Mustang\"];\r\n    int[5] public vech_own = [2,3,5,1,3];\r\n    uint256 private deposit;\r\n\r\n    function getdetails(int _vin) view public returns(string memory , string memory, string memory ) {\r\n        for(uint i =0; i<5; i++)\r\n        {\r\n            if (_vin == vin[i])\r\n            {return (addr[i], names[i], date[i]);}\r\n        }\r\n    }\r\n\r\n    function transfer_ether( uint currency) payable public returns(uint256 ) {\r\n        deposit = currency;\r\n        \r\n        addrs.transfer(deposit);\r\n\r\n        return deposit ;\r\n    }\r\n    \r\n    function set_renewal_date( string memory _date, int _vin) public returns(string  memory)\r\n    {\r\n        for (uint i=0;i<5;i++)\r\n        {\r\n            if(_vin == vin[i])\r\n            {\r\n                date[i] = _date;\r\n            }\r\n        }\r\n        return \"set the renewal date succesufully\";\r\n    }\r\n\r\n    function set_address( string memory _address, int _vin) public returns(string  memory)\r\n    {\r\n        for (uint i=0;i<5;i++)\r\n        {\r\n            if(_vin == vin[i])\r\n            {\r\n                addr[i] = _address;\r\n            }\r\n        }\r\n        return \"set the address succesufully\";\r\n    }\r\n   \r\n}\r\n",
  "sourcePath": "C:/Crypto/contracts/reg_renewal.sol",
  "compiler": {
    "name": "solc",
    "version": "0.5.0+commit.1d4f565a.Emscripten.clang"
  },
  "schemaVersion": "3.0.6",
  "updatedAt": "2019-05-02T15:56:17.818Z",
  "devdoc": {
    "methods": {}
  },
  "userdoc": {
    "methods": {}
  }
}